{"abi":[{"type":"constructor","inputs":[{"name":"_entraceFee","type":"uint256","internalType":"uint256"},{"name":"_interval","type":"uint256","internalType":"uint256"},{"name":"_vrfCoordinator","type":"address","internalType":"address"},{"name":"_gasLane","type":"bytes32","internalType":"bytes32"},{"name":"_subscriptionId","type":"uint256","internalType":"uint256"},{"name":"_gasLimit","type":"uint32","internalType":"uint32"},{"name":"_numWords","type":"uint8","internalType":"uint8"}],"stateMutability":"nonpayable"},{"type":"function","name":"acceptOwnership","inputs":[],"outputs":[],"stateMutability":"nonpayable"},{"type":"function","name":"enterRaffle","inputs":[],"outputs":[],"stateMutability":"payable"},{"type":"function","name":"getEntranceFee","inputs":[],"outputs":[{"name":"","type":"uint256","internalType":"uint256"}],"stateMutability":"view"},{"type":"function","name":"owner","inputs":[],"outputs":[{"name":"","type":"address","internalType":"address"}],"stateMutability":"view"},{"type":"function","name":"pickWinner","inputs":[],"outputs":[],"stateMutability":"view"},{"type":"function","name":"rawFulfillRandomWords","inputs":[{"name":"requestId","type":"uint256","internalType":"uint256"},{"name":"randomWords","type":"uint256[]","internalType":"uint256[]"}],"outputs":[],"stateMutability":"nonpayable"},{"type":"function","name":"s_vrfCoordinator","inputs":[],"outputs":[{"name":"","type":"address","internalType":"contract IVRFCoordinatorV2Plus"}],"stateMutability":"view"},{"type":"function","name":"setCoordinator","inputs":[{"name":"_vrfCoordinator","type":"address","internalType":"address"}],"outputs":[],"stateMutability":"nonpayable"},{"type":"function","name":"transferOwnership","inputs":[{"name":"to","type":"address","internalType":"address"}],"outputs":[],"stateMutability":"nonpayable"},{"type":"event","name":"CoordinatorSet","inputs":[{"name":"vrfCoordinator","type":"address","indexed":false,"internalType":"address"}],"anonymous":false},{"type":"event","name":"OwnershipTransferRequested","inputs":[{"name":"from","type":"address","indexed":true,"internalType":"address"},{"name":"to","type":"address","indexed":true,"internalType":"address"}],"anonymous":false},{"type":"event","name":"OwnershipTransferred","inputs":[{"name":"from","type":"address","indexed":true,"internalType":"address"},{"name":"to","type":"address","indexed":true,"internalType":"address"}],"anonymous":false},{"type":"event","name":"RaffleEntered","inputs":[{"name":"player","type":"address","indexed":true,"internalType":"address"}],"anonymous":false},{"type":"error","name":"OnlyCoordinatorCanFulfill","inputs":[{"name":"have","type":"address","internalType":"address"},{"name":"want","type":"address","internalType":"address"}]},{"type":"error","name":"OnlyOwnerOrCoordinator","inputs":[{"name":"have","type":"address","internalType":"address"},{"name":"owner","type":"address","internalType":"address"},{"name":"coordinator","type":"address","internalType":"address"}]},{"type":"error","name":"Raffle_NotEnoughTimeHasPassed","inputs":[]},{"type":"error","name":"Raffle__SendMoreToEnterRaffle","inputs":[]},{"type":"error","name":"ZeroAddress","inputs":[]}],"bytecode":{"object":"0x61014060405234801561001157600080fd5b50604051610966380380610966833981016040819052610030916101da565b8433806000816100875760405162461bcd60e51b815260206004820152601860248201527f43616e6e6f7420736574206f776e657220746f207a65726f000000000000000060448201526064015b60405180910390fd5b600080546001600160a01b0319166001600160a01b03848116919091179091558116156100b7576100b781610131565b5050506001600160a01b0381166100e15760405163d92e233d60e01b815260040160405180910390fd5b600280546001600160a01b0319166001600160a01b039290921691909117905560809690965260a094909452426003556101009190915260c0525063ffffffff1660e05260ff166101205261026b565b336001600160a01b038216036101895760405162461bcd60e51b815260206004820152601760248201527f43616e6e6f74207472616e7366657220746f2073656c66000000000000000000604482015260640161007e565b600180546001600160a01b0319166001600160a01b0383811691821790925560008054604051929316917fed8889f560326eb138920d842192f0eb3dd22b4f139c87a2c57538e05bae12789190a350565b600080600080600080600060e0888a0312156101f557600080fd5b8751602089015160408a015191985096506001600160a01b038116811461021b57600080fd5b80955050606088015193506080880151925060a088015163ffffffff8116811461024457600080fd5b60c089015190925060ff8116811461025b57600080fd5b8091505092959891949750929550565b60805160a05160c05160e05161010051610120516106b26102b46000396000505060005050600050506000505060006102ac015260008181609d01526101fd01526106b26000f3fe6080604052600436106100865760003560e01c806379ba50971161005957806379ba50971461010a5780638da5cb5b1461011f5780638ea98117146101515780639eccacf614610171578063f2fde38b1461019157600080fd5b806309bc33a71461008b5780631fe543e3146100cb5780632cfcc539146100ed5780635d495aea146100f5575b600080fd5b34801561009757600080fd5b506040517f000000000000000000000000000000000000000000000000000000000000000081526020015b60405180910390f35b3480156100d757600080fd5b506100eb6100e63660046105a6565b6101b1565b005b6100eb6101fb565b34801561010157600080fd5b506100eb6102aa565b34801561011657600080fd5b506100eb6102fa565b34801561012b57600080fd5b506000546001600160a01b03165b6040516001600160a01b0390911681526020016100c2565b34801561015d57600080fd5b506100eb61016c366004610625565b6103a4565b34801561017d57600080fd5b50600254610139906001600160a01b031681565b34801561019d57600080fd5b506100eb6101ac366004610625565b610496565b6002546001600160a01b031633146101f65760025460405163073e64fd60e21b81523360048201526001600160a01b0390911660248201526044015b60405180910390fd5b505050565b7f000000000000000000000000000000000000000000000000000000000000000034101561023c5760405163181c600560e11b815260040160405180910390fd5b6004805460018101825560009182527f8a35acfbc15ff81a39ae7d344fd709f28e8600b4aa8c65c6b64bfe7fe36bd19b0180546001600160a01b0319163390811790915560405190917f634f3211e3a4e43fee5a21ad9f87ca153b300fc78b1c557a2057dbe9c63bcb4791a2565b7f0000000000000000000000000000000000000000000000000000000000000000600354426102d99190610655565b10156102f8576040516382562aa560e01b815260040160405180910390fd5b565b6001546001600160a01b0316331461034d5760405162461bcd60e51b815260206004820152601660248201527526bab9ba10313290383937b837b9b2b21037bbb732b960511b60448201526064016101ed565b60008054336001600160a01b0319808316821784556001805490911690556040516001600160a01b0390921692909183917f8be0079c531659141344cd1fd0a4f28419497f9722a3daafe3b4186f6b6457e091a350565b6000546001600160a01b031633148015906103ca57506002546001600160a01b03163314155b1561041b57336103e26000546001600160a01b031690565b60025460405163061db9c160e01b81526001600160a01b03938416600482015291831660248301529190911660448201526064016101ed565b6001600160a01b0381166104425760405163d92e233d60e01b815260040160405180910390fd5b600280546001600160a01b0319166001600160a01b0383169081179091556040519081527fd1a6a14209a385a964d036e404cb5cfb71f4000cdb03c9366292430787261be69060200160405180910390a150565b61049e6104aa565b6104a7816104fd565b50565b6000546001600160a01b031633146102f85760405162461bcd60e51b815260206004820152601660248201527527b7363c9031b0b63630b1363290313c9037bbb732b960511b60448201526064016101ed565b336001600160a01b038216036105555760405162461bcd60e51b815260206004820152601760248201527f43616e6e6f74207472616e7366657220746f2073656c6600000000000000000060448201526064016101ed565b600180546001600160a01b0319166001600160a01b0383811691821790925560008054604051929316917fed8889f560326eb138920d842192f0eb3dd22b4f139c87a2c57538e05bae12789190a350565b6000806000604084860312156105bb57600080fd5b83359250602084013567ffffffffffffffff808211156105da57600080fd5b818601915086601f8301126105ee57600080fd5b8135818111156105fd57600080fd5b8760208260051b850101111561061257600080fd5b6020830194508093505050509250925092565b60006020828403121561063757600080fd5b81356001600160a01b038116811461064e57600080fd5b9392505050565b8181038181111561067657634e487b7160e01b600052601160045260246000fd5b9291505056fea2646970667358221220457970f6bb7e4db761e4693c8c45113ef95a5c8363ca829a4dcac3c4674f400b64736f6c63430008130033","linkReferences":{}},"methodIdentifiers":{"acceptOwnership()":"79ba5097","enterRaffle()":"2cfcc539","getEntranceFee()":"09bc33a7","owner()":"8da5cb5b","pickWinner()":"5d495aea","rawFulfillRandomWords(uint256,uint256[])":"1fe543e3","s_vrfCoordinator()":"9eccacf6","setCoordinator(address)":"8ea98117","transferOwnership(address)":"f2fde38b"},"id":8}