{"abi":[{"type":"constructor","inputs":[{"name":"_entranceFee","type":"uint256","internalType":"uint256"},{"name":"_interval","type":"uint256","internalType":"uint256"},{"name":"_vrfCoordinator","type":"address","internalType":"address"},{"name":"_gasLane","type":"bytes32","internalType":"bytes32"},{"name":"_subscriptionId","type":"uint256","internalType":"uint256"},{"name":"_gasLimit","type":"uint32","internalType":"uint32"}],"stateMutability":"nonpayable"},{"type":"function","name":"acceptOwnership","inputs":[],"outputs":[],"stateMutability":"nonpayable"},{"type":"function","name":"checkUpkeep","inputs":[{"name":"","type":"bytes","internalType":"bytes"}],"outputs":[{"name":"upkeepNeeded","type":"bool","internalType":"bool"},{"name":"","type":"bytes","internalType":"bytes"}],"stateMutability":"view"},{"type":"function","name":"enterRaffle","inputs":[],"outputs":[],"stateMutability":"payable"},{"type":"function","name":"getEntranceFee","inputs":[],"outputs":[{"name":"","type":"uint256","internalType":"uint256"}],"stateMutability":"view"},{"type":"function","name":"getPlayer","inputs":[{"name":"index","type":"uint256","internalType":"uint256"}],"outputs":[{"name":"","type":"address","internalType":"address"}],"stateMutability":"view"},{"type":"function","name":"getRaffleState","inputs":[],"outputs":[{"name":"","type":"uint8","internalType":"enum Raffle.RaffleState"}],"stateMutability":"view"},{"type":"function","name":"owner","inputs":[],"outputs":[{"name":"","type":"address","internalType":"address"}],"stateMutability":"view"},{"type":"function","name":"performUpkeep","inputs":[{"name":"","type":"bytes","internalType":"bytes"}],"outputs":[],"stateMutability":"nonpayable"},{"type":"function","name":"rawFulfillRandomWords","inputs":[{"name":"requestId","type":"uint256","internalType":"uint256"},{"name":"randomWords","type":"uint256[]","internalType":"uint256[]"}],"outputs":[],"stateMutability":"nonpayable"},{"type":"function","name":"s_vrfCoordinator","inputs":[],"outputs":[{"name":"","type":"address","internalType":"contract IVRFCoordinatorV2Plus"}],"stateMutability":"view"},{"type":"function","name":"setCoordinator","inputs":[{"name":"_vrfCoordinator","type":"address","internalType":"address"}],"outputs":[],"stateMutability":"nonpayable"},{"type":"function","name":"transferOwnership","inputs":[{"name":"to","type":"address","internalType":"address"}],"outputs":[],"stateMutability":"nonpayable"},{"type":"event","name":"CoordinatorSet","inputs":[{"name":"vrfCoordinator","type":"address","indexed":false,"internalType":"address"}],"anonymous":false},{"type":"event","name":"OwnershipTransferRequested","inputs":[{"name":"from","type":"address","indexed":true,"internalType":"address"},{"name":"to","type":"address","indexed":true,"internalType":"address"}],"anonymous":false},{"type":"event","name":"OwnershipTransferred","inputs":[{"name":"from","type":"address","indexed":true,"internalType":"address"},{"name":"to","type":"address","indexed":true,"internalType":"address"}],"anonymous":false},{"type":"event","name":"RaffleEntered","inputs":[{"name":"player","type":"address","indexed":true,"internalType":"address"}],"anonymous":false},{"type":"event","name":"RequersRaffleWinner","inputs":[{"name":"requestId","type":"uint256","indexed":false,"internalType":"uint256"}],"anonymous":false},{"type":"event","name":"WinnerPicked","inputs":[{"name":"s_recentWinner","type":"address","indexed":false,"internalType":"address"}],"anonymous":false},{"type":"error","name":"OnlyCoordinatorCanFulfill","inputs":[{"name":"have","type":"address","internalType":"address"},{"name":"want","type":"address","internalType":"address"}]},{"type":"error","name":"OnlyOwnerOrCoordinator","inputs":[{"name":"have","type":"address","internalType":"address"},{"name":"owner","type":"address","internalType":"address"},{"name":"coordinator","type":"address","internalType":"address"}]},{"type":"error","name":"Raffle__MoneyNotSent","inputs":[]},{"type":"error","name":"Raffle__NotEnoughTimeHasPassed","inputs":[]},{"type":"error","name":"Raffle__RaffleNotOpen","inputs":[]},{"type":"error","name":"Raffle__SendMoreToEnterRaffle","inputs":[]},{"type":"error","name":"ZeroAddress","inputs":[]}],"bytecode":{"object":"0x61012060405234801561001157600080fd5b50604051611158380380611158833981016040819052610030916101dd565b8333806000816100875760405162461bcd60e51b815260206004820152601860248201527f43616e6e6f7420736574206f776e657220746f207a65726f000000000000000060448201526064015b60405180910390fd5b600080546001600160a01b0319166001600160a01b03848116919091179091558116156100b7576100b781610134565b5050506001600160a01b0381166100e15760405163d92e233d60e01b815260040160405180910390fd5b600280546001600160a01b0319166001600160a01b039290921691909117905560809590955260a09390935242600355610100525060c05263ffffffff1660e0526005805460ff60a01b19169055610253565b336001600160a01b0382160361018c5760405162461bcd60e51b815260206004820152601760248201527f43616e6e6f74207472616e7366657220746f2073656c66000000000000000000604482015260640161007e565b600180546001600160a01b0319166001600160a01b0383811691821790925560008054604051929316917fed8889f560326eb138920d842192f0eb3dd22b4f139c87a2c57538e05bae12789190a350565b60008060008060008060c087890312156101f657600080fd5b86516020880151604089015191975095506001600160a01b038116811461021c57600080fd5b80945050606087015192506080870151915060a087015163ffffffff8116811461024557600080fd5b809150509295509295509295565b60805160a05160c05160e05161010051610ebb61029d60003960006108070152600061085f0152600061082a0152600061043501526000818160be01526102a90152610ebb6000f3fe6080604052600436106100a75760003560e01c806379ba50971161006457806379ba50971461018b5780638da5cb5b146101a05780638ea98117146101d25780639eccacf6146101f2578063e55ae4e814610212578063f2fde38b1461023257600080fd5b806309bc33a7146100ac578063115cbaf5146100ec5780631fe543e3146101135780632cfcc539146101355780634585e33b1461013d5780636e04ff0d1461015d575b600080fd5b3480156100b857600080fd5b506040517f000000000000000000000000000000000000000000000000000000000000000081526020015b60405180910390f35b3480156100f857600080fd5b50600554600160a01b900460ff166040516100e39190610b1e565b34801561011f57600080fd5b5061013361012e366004610b46565b610252565b005b6101336102a7565b34801561014957600080fd5b50610133610158366004610bc5565b610394565b34801561016957600080fd5b5061017d610178366004610c4d565b61042d565b6040516100e3929190610d44565b34801561019757600080fd5b506101336104cd565b3480156101ac57600080fd5b506000546001600160a01b03165b6040516001600160a01b0390911681526020016100e3565b3480156101de57600080fd5b506101336101ed366004610d67565b610577565b3480156101fe57600080fd5b506002546101ba906001600160a01b031681565b34801561021e57600080fd5b506101ba61022d366004610d97565b610669565b34801561023e57600080fd5b5061013361024d366004610d67565b610699565b6002546001600160a01b031633146102975760025460405163073e64fd60e21b81523360048201526001600160a01b0390911660248201526044015b60405180910390fd5b6102a28383836106ad565b505050565b7f00000000000000000000000000000000000000000000000000000000000000003410156102e85760405163181c600560e11b815260040160405180910390fd5b6000600554600160a01b900460ff16600181111561030857610308610b08565b146103265760405163349289c560e21b815260040160405180910390fd5b6004805460018101825560009182527f8a35acfbc15ff81a39ae7d344fd709f28e8600b4aa8c65c6b64bfe7fe36bd19b0180546001600160a01b0319163390811790915560405190917f634f3211e3a4e43fee5a21ad9f87ca153b300fc78b1c557a2057dbe9c63bcb4791a2565b60006103ae6040518060200160405280600081525061042d565b509050806103cf5760405163b650271960e01b815260040160405180910390fd5b6005805460ff60a01b1916600160a01b17905560006103ec6107f8565b90507fcfd74d43ec77fedbb868c31054de37349c190b9fa231aceea5aaaf5324613d4f8160405161041f91815260200190565b60405180910390a150505050565b6000606060007f0000000000000000000000000000000000000000000000000000000000000000600354426104629190610db0565b10159050600080600554600160a01b900460ff16600181111561048757610487610b08565b6004549114915047151590151583801561049e5750825b80156104a75750815b80156104b05750805b604080516020810190915260008152909890975095505050505050565b6001546001600160a01b031633146105205760405162461bcd60e51b815260206004820152601660248201527526bab9ba10313290383937b837b9b2b21037bbb732b960511b604482015260640161028e565b60008054336001600160a01b0319808316821784556001805490911690556040516001600160a01b0390921692909183917f8be0079c531659141344cd1fd0a4f28419497f9722a3daafe3b4186f6b6457e091a350565b6000546001600160a01b0316331480159061059d57506002546001600160a01b03163314155b156105ee57336105b56000546001600160a01b031690565b60025460405163061db9c160e01b81526001600160a01b039384166004820152918316602483015291909116604482015260640161028e565b6001600160a01b0381166106155760405163d92e233d60e01b815260040160405180910390fd5b600280546001600160a01b0319166001600160a01b0383169081179091556040519081527fd1a6a14209a385a964d036e404cb5cfb71f4000cdb03c9366292430787261be69060200160405180910390a150565b60006004828154811061067e5761067e610dd7565b6000918252602090912001546001600160a01b031692915050565b6106a161091f565b6106aa81610974565b50565b600454600081848483816106c3576106c3610dd7565b905060200201356106d49190610ded565b90506000600482815481106106eb576106eb610dd7565b600091825260208083209190910154600580546001600160a81b0319166001600160a01b039092169182179055604080519384529183019182905291519192506107389160049190610a8e565b50426003556040516000906001600160a01b0383169047908381818185875af1925050503d8060008114610788576040519150601f19603f3d011682016040523d82523d6000602084013e61078d565b606091505b50509050806107af57604051635284429360e01b815260040160405180910390fd5b6005546040516001600160a01b0390911681527f5b690ec4a06fe979403046eaeea5b3ce38524683c3001f662c8b5a829632f7df9060200160405180910390a150505050505050565b6002546040805160c0810182527f000000000000000000000000000000000000000000000000000000000000000081527f000000000000000000000000000000000000000000000000000000000000000060208083019190915260038284015263ffffffff7f00000000000000000000000000000000000000000000000000000000000000001660608301526001608083015282519081019092526000808352926001600160a01b031691639b1c385e919060a08201906108b890610a1d565b8152506040518263ffffffff1660e01b81526004016108d79190610e0f565b6020604051808303816000875af11580156108f6573d6000803e3d6000fd5b505050506040513d601f19601f8201168201806040525081019061091a9190610e6c565b905090565b6000546001600160a01b031633146109725760405162461bcd60e51b815260206004820152601660248201527527b7363c9031b0b63630b1363290313c9037bbb732b960511b604482015260640161028e565b565b336001600160a01b038216036109cc5760405162461bcd60e51b815260206004820152601760248201527f43616e6e6f74207472616e7366657220746f2073656c66000000000000000000604482015260640161028e565b600180546001600160a01b0319166001600160a01b0383811691821790925560008054604051929316917fed8889f560326eb138920d842192f0eb3dd22b4f139c87a2c57538e05bae12789190a350565b60607f92fd13387c7fe7befbc38d303d6468778fb9731bc4583f17d92989c6fcfdeaaa82604051602401610a5691511515815260200190565b60408051601f198184030181529190526020810180516001600160e01b03166001600160e01b03199093169290921790915292915050565b828054828255906000526020600020908101928215610ae3579160200282015b82811115610ae357825182546001600160a01b0319166001600160a01b03909116178255602090920191600190910190610aae565b50610aef929150610af3565b5090565b5b80821115610aef5760008155600101610af4565b634e487b7160e01b600052602160045260246000fd5b6020810160028310610b4057634e487b7160e01b600052602160045260246000fd5b91905290565b600080600060408486031215610b5b57600080fd5b83359250602084013567ffffffffffffffff80821115610b7a57600080fd5b818601915086601f830112610b8e57600080fd5b813581811115610b9d57600080fd5b8760208260051b8501011115610bb257600080fd5b6020830194508093505050509250925092565b60008060208385031215610bd857600080fd5b823567ffffffffffffffff80821115610bf057600080fd5b818501915085601f830112610c0457600080fd5b813581811115610c1357600080fd5b866020828501011115610c2557600080fd5b60209290920196919550909350505050565b634e487b7160e01b600052604160045260246000fd5b600060208284031215610c5f57600080fd5b813567ffffffffffffffff80821115610c7757600080fd5b818401915084601f830112610c8b57600080fd5b813581811115610c9d57610c9d610c37565b604051601f8201601f19908116603f01168101908382118183101715610cc557610cc5610c37565b81604052828152876020848701011115610cde57600080fd5b826020860160208301376000928101602001929092525095945050505050565b6000815180845260005b81811015610d2457602081850181015186830182015201610d08565b506000602082860101526020601f19601f83011685010191505092915050565b8215158152604060208201526000610d5f6040830184610cfe565b949350505050565b600060208284031215610d7957600080fd5b81356001600160a01b0381168114610d9057600080fd5b9392505050565b600060208284031215610da957600080fd5b5035919050565b81810381811115610dd157634e487b7160e01b600052601160045260246000fd5b92915050565b634e487b7160e01b600052603260045260246000fd5b600082610e0a57634e487b7160e01b600052601260045260246000fd5b500690565b60208152815160208201526020820151604082015261ffff60408301511660608201526000606083015163ffffffff80821660808501528060808601511660a0850152505060a083015160c080840152610d5f60e0840182610cfe565b600060208284031215610e7e57600080fd5b505191905056fea26469706673582212202032be3fcfbbbc794a9a42c170fb4b74ae0772ed6f8f68e898095fabbfd7941964736f6c63430008130033","linkReferences":{}},"methodIdentifiers":{"acceptOwnership()":"79ba5097","checkUpkeep(bytes)":"6e04ff0d","enterRaffle()":"2cfcc539","getEntranceFee()":"09bc33a7","getPlayer(uint256)":"e55ae4e8","getRaffleState()":"115cbaf5","owner()":"8da5cb5b","performUpkeep(bytes)":"4585e33b","rawFulfillRandomWords(uint256,uint256[])":"1fe543e3","s_vrfCoordinator()":"9eccacf6","setCoordinator(address)":"8ea98117","transferOwnership(address)":"f2fde38b"},"id":42}